{
  "_format": "hh-sol-artifact-1",
  "contractName": "MyERC721",
  "sourceName": "contracts/MyERC721.sol",
  "abi": [
    {
      "inputs": [
        {
          "internalType": "string",
          "name": "_name",
          "type": "string"
        },
        {
          "internalType": "string",
          "name": "_symbol",
          "type": "string"
        }
      ],
      "stateMutability": "nonpayable",
      "type": "constructor"
    },
    {
      "anonymous": false,
      "inputs": [
        {
          "indexed": true,
          "internalType": "address",
          "name": "owner",
          "type": "address"
        },
        {
          "indexed": true,
          "internalType": "address",
          "name": "approved",
          "type": "address"
        },
        {
          "indexed": true,
          "internalType": "uint256",
          "name": "tokenId",
          "type": "uint256"
        }
      ],
      "name": "Approval",
      "type": "event"
    },
    {
      "anonymous": false,
      "inputs": [
        {
          "indexed": true,
          "internalType": "address",
          "name": "owner",
          "type": "address"
        },
        {
          "indexed": true,
          "internalType": "address",
          "name": "operator",
          "type": "address"
        },
        {
          "indexed": false,
          "internalType": "bool",
          "name": "approved",
          "type": "bool"
        }
      ],
      "name": "ApprovalForAll",
      "type": "event"
    },
    {
      "anonymous": false,
      "inputs": [
        {
          "indexed": false,
          "internalType": "uint256",
          "name": "_fromTokenId",
          "type": "uint256"
        },
        {
          "indexed": false,
          "internalType": "uint256",
          "name": "_toTokenId",
          "type": "uint256"
        }
      ],
      "name": "BatchMetadataUpdate",
      "type": "event"
    },
    {
      "anonymous": false,
      "inputs": [
        {
          "indexed": false,
          "internalType": "uint256",
          "name": "_tokenId",
          "type": "uint256"
        }
      ],
      "name": "MetadataUpdate",
      "type": "event"
    },
    {
      "anonymous": false,
      "inputs": [
        {
          "indexed": true,
          "internalType": "bytes32",
          "name": "role",
          "type": "bytes32"
        },
        {
          "indexed": true,
          "internalType": "bytes32",
          "name": "previousAdminRole",
          "type": "bytes32"
        },
        {
          "indexed": true,
          "internalType": "bytes32",
          "name": "newAdminRole",
          "type": "bytes32"
        }
      ],
      "name": "RoleAdminChanged",
      "type": "event"
    },
    {
      "anonymous": false,
      "inputs": [
        {
          "indexed": true,
          "internalType": "bytes32",
          "name": "role",
          "type": "bytes32"
        },
        {
          "indexed": true,
          "internalType": "address",
          "name": "account",
          "type": "address"
        },
        {
          "indexed": true,
          "internalType": "address",
          "name": "sender",
          "type": "address"
        }
      ],
      "name": "RoleGranted",
      "type": "event"
    },
    {
      "anonymous": false,
      "inputs": [
        {
          "indexed": true,
          "internalType": "bytes32",
          "name": "role",
          "type": "bytes32"
        },
        {
          "indexed": true,
          "internalType": "address",
          "name": "account",
          "type": "address"
        },
        {
          "indexed": true,
          "internalType": "address",
          "name": "sender",
          "type": "address"
        }
      ],
      "name": "RoleRevoked",
      "type": "event"
    },
    {
      "anonymous": false,
      "inputs": [
        {
          "indexed": true,
          "internalType": "address",
          "name": "from",
          "type": "address"
        },
        {
          "indexed": true,
          "internalType": "address",
          "name": "to",
          "type": "address"
        },
        {
          "indexed": true,
          "internalType": "uint256",
          "name": "tokenId",
          "type": "uint256"
        }
      ],
      "name": "Transfer",
      "type": "event"
    },
    {
      "inputs": [],
      "name": "DEFAULT_ADMIN_ROLE",
      "outputs": [
        {
          "internalType": "bytes32",
          "name": "",
          "type": "bytes32"
        }
      ],
      "stateMutability": "view",
      "type": "function"
    },
    {
      "inputs": [],
      "name": "MINTER_ROLE",
      "outputs": [
        {
          "internalType": "bytes32",
          "name": "",
          "type": "bytes32"
        }
      ],
      "stateMutability": "view",
      "type": "function"
    },
    {
      "inputs": [
        {
          "internalType": "address",
          "name": "to",
          "type": "address"
        },
        {
          "internalType": "uint256",
          "name": "tokenId",
          "type": "uint256"
        }
      ],
      "name": "approve",
      "outputs": [],
      "stateMutability": "nonpayable",
      "type": "function"
    },
    {
      "inputs": [
        {
          "internalType": "address",
          "name": "owner",
          "type": "address"
        }
      ],
      "name": "balanceOf",
      "outputs": [
        {
          "internalType": "uint256",
          "name": "",
          "type": "uint256"
        }
      ],
      "stateMutability": "view",
      "type": "function"
    },
    {
      "inputs": [
        {
          "internalType": "uint256",
          "name": "tokenId",
          "type": "uint256"
        }
      ],
      "name": "getApproved",
      "outputs": [
        {
          "internalType": "address",
          "name": "",
          "type": "address"
        }
      ],
      "stateMutability": "view",
      "type": "function"
    },
    {
      "inputs": [
        {
          "internalType": "bytes32",
          "name": "role",
          "type": "bytes32"
        }
      ],
      "name": "getRoleAdmin",
      "outputs": [
        {
          "internalType": "bytes32",
          "name": "",
          "type": "bytes32"
        }
      ],
      "stateMutability": "view",
      "type": "function"
    },
    {
      "inputs": [
        {
          "internalType": "bytes32",
          "name": "role",
          "type": "bytes32"
        },
        {
          "internalType": "address",
          "name": "account",
          "type": "address"
        }
      ],
      "name": "grantRole",
      "outputs": [],
      "stateMutability": "nonpayable",
      "type": "function"
    },
    {
      "inputs": [
        {
          "internalType": "bytes32",
          "name": "role",
          "type": "bytes32"
        },
        {
          "internalType": "address",
          "name": "account",
          "type": "address"
        }
      ],
      "name": "hasRole",
      "outputs": [
        {
          "internalType": "bool",
          "name": "",
          "type": "bool"
        }
      ],
      "stateMutability": "view",
      "type": "function"
    },
    {
      "inputs": [
        {
          "internalType": "address",
          "name": "owner",
          "type": "address"
        },
        {
          "internalType": "address",
          "name": "operator",
          "type": "address"
        }
      ],
      "name": "isApprovedForAll",
      "outputs": [
        {
          "internalType": "bool",
          "name": "",
          "type": "bool"
        }
      ],
      "stateMutability": "view",
      "type": "function"
    },
    {
      "inputs": [],
      "name": "name",
      "outputs": [
        {
          "internalType": "string",
          "name": "",
          "type": "string"
        }
      ],
      "stateMutability": "view",
      "type": "function"
    },
    {
      "inputs": [
        {
          "internalType": "uint256",
          "name": "tokenId",
          "type": "uint256"
        }
      ],
      "name": "ownerOf",
      "outputs": [
        {
          "internalType": "address",
          "name": "",
          "type": "address"
        }
      ],
      "stateMutability": "view",
      "type": "function"
    },
    {
      "inputs": [
        {
          "internalType": "bytes32",
          "name": "role",
          "type": "bytes32"
        },
        {
          "internalType": "address",
          "name": "account",
          "type": "address"
        }
      ],
      "name": "renounceRole",
      "outputs": [],
      "stateMutability": "nonpayable",
      "type": "function"
    },
    {
      "inputs": [
        {
          "internalType": "bytes32",
          "name": "role",
          "type": "bytes32"
        },
        {
          "internalType": "address",
          "name": "account",
          "type": "address"
        }
      ],
      "name": "revokeRole",
      "outputs": [],
      "stateMutability": "nonpayable",
      "type": "function"
    },
    {
      "inputs": [
        {
          "internalType": "uint256",
          "name": "tokenId",
          "type": "uint256"
        },
        {
          "internalType": "uint256",
          "name": "salePrice",
          "type": "uint256"
        }
      ],
      "name": "royaltyInfo",
      "outputs": [
        {
          "internalType": "address",
          "name": "",
          "type": "address"
        },
        {
          "internalType": "uint256",
          "name": "",
          "type": "uint256"
        }
      ],
      "stateMutability": "view",
      "type": "function"
    },
    {
      "inputs": [
        {
          "internalType": "address",
          "name": "to",
          "type": "address"
        },
        {
          "internalType": "string",
          "name": "_tokenURI",
          "type": "string"
        }
      ],
      "name": "safeMint",
      "outputs": [
        {
          "internalType": "uint256",
          "name": "",
          "type": "uint256"
        }
      ],
      "stateMutability": "nonpayable",
      "type": "function"
    },
    {
      "inputs": [
        {
          "internalType": "address",
          "name": "from",
          "type": "address"
        },
        {
          "internalType": "address",
          "name": "to",
          "type": "address"
        },
        {
          "internalType": "uint256",
          "name": "tokenId",
          "type": "uint256"
        }
      ],
      "name": "safeTransferFrom",
      "outputs": [],
      "stateMutability": "nonpayable",
      "type": "function"
    },
    {
      "inputs": [
        {
          "internalType": "address",
          "name": "from",
          "type": "address"
        },
        {
          "internalType": "address",
          "name": "to",
          "type": "address"
        },
        {
          "internalType": "uint256",
          "name": "tokenId",
          "type": "uint256"
        },
        {
          "internalType": "bytes",
          "name": "data",
          "type": "bytes"
        }
      ],
      "name": "safeTransferFrom",
      "outputs": [],
      "stateMutability": "nonpayable",
      "type": "function"
    },
    {
      "inputs": [
        {
          "internalType": "address",
          "name": "operator",
          "type": "address"
        },
        {
          "internalType": "bool",
          "name": "approved",
          "type": "bool"
        }
      ],
      "name": "setApprovalForAll",
      "outputs": [],
      "stateMutability": "nonpayable",
      "type": "function"
    },
    {
      "inputs": [
        {
          "internalType": "bytes4",
          "name": "interfaceId",
          "type": "bytes4"
        }
      ],
      "name": "supportsInterface",
      "outputs": [
        {
          "internalType": "bool",
          "name": "",
          "type": "bool"
        }
      ],
      "stateMutability": "view",
      "type": "function"
    },
    {
      "inputs": [],
      "name": "symbol",
      "outputs": [
        {
          "internalType": "string",
          "name": "",
          "type": "string"
        }
      ],
      "stateMutability": "view",
      "type": "function"
    },
    {
      "inputs": [
        {
          "internalType": "uint256",
          "name": "index",
          "type": "uint256"
        }
      ],
      "name": "tokenByIndex",
      "outputs": [
        {
          "internalType": "uint256",
          "name": "",
          "type": "uint256"
        }
      ],
      "stateMutability": "view",
      "type": "function"
    },
    {
      "inputs": [
        {
          "internalType": "address",
          "name": "owner",
          "type": "address"
        },
        {
          "internalType": "uint256",
          "name": "index",
          "type": "uint256"
        }
      ],
      "name": "tokenOfOwnerByIndex",
      "outputs": [
        {
          "internalType": "uint256",
          "name": "",
          "type": "uint256"
        }
      ],
      "stateMutability": "view",
      "type": "function"
    },
    {
      "inputs": [
        {
          "internalType": "uint256",
          "name": "tokenId",
          "type": "uint256"
        }
      ],
      "name": "tokenURI",
      "outputs": [
        {
          "internalType": "string",
          "name": "",
          "type": "string"
        }
      ],
      "stateMutability": "view",
      "type": "function"
    },
    {
      "inputs": [],
      "name": "totalSupply",
      "outputs": [
        {
          "internalType": "uint256",
          "name": "",
          "type": "uint256"
        }
      ],
      "stateMutability": "view",
      "type": "function"
    },
    {
      "inputs": [
        {
          "internalType": "address",
          "name": "from",
          "type": "address"
        },
        {
          "internalType": "address",
          "name": "to",
          "type": "address"
        },
        {
          "internalType": "uint256",
          "name": "tokenId",
          "type": "uint256"
        }
      ],
      "name": "transferFrom",
      "outputs": [],
      "stateMutability": "nonpayable",
      "type": "function"
    }
  ],
  "bytecode": "0x60806040523480156200001157600080fd5b506040516200280738038062002807833981016040819052620000349162000214565b818160006200004483826200030d565b5060016200005382826200030d565b505050620000917f9f2df0fed2c77648de5860a4cc508cd0818c85b8b8a1ab4ceeef8d981c8956a66200008b620000a660201b60201c565b620000aa565b6200009e600033620000aa565b5050620003d9565b3390565b6000828152600b602090815260408083206001600160a01b038516845290915290205460ff166200014b576000828152600b602090815260408083206001600160a01b03851684529091529020805460ff191660011790556200010a3390565b6001600160a01b0316816001600160a01b0316837f2f8788117e7eff1d82e926ec794901d17c78024a50270940304540a733656f0d60405160405180910390a45b5050565b634e487b7160e01b600052604160045260246000fd5b600082601f8301126200017757600080fd5b81516001600160401b03808211156200019457620001946200014f565b604051601f8301601f19908116603f01168101908282118183101715620001bf57620001bf6200014f565b81604052838152602092508683858801011115620001dc57600080fd5b600091505b83821015620002005785820183015181830184015290820190620001e1565b600093810190920192909252949350505050565b600080604083850312156200022857600080fd5b82516001600160401b03808211156200024057600080fd5b6200024e8683870162000165565b935060208501519150808211156200026557600080fd5b50620002748582860162000165565b9150509250929050565b600181811c908216806200029357607f821691505b602082108103620002b457634e487b7160e01b600052602260045260246000fd5b50919050565b601f8211156200030857600081815260208120601f850160051c81016020861015620002e35750805b601f850160051c820191505b818110156200030457828155600101620002ef565b5050505b505050565b81516001600160401b038111156200032957620003296200014f565b62000341816200033a84546200027e565b84620002ba565b602080601f831160018114620003795760008415620003605750858301515b600019600386901b1c1916600185901b17855562000304565b600085815260208120601f198616915b82811015620003aa5788860151825594840194600190910190840162000389565b5085821015620003c95787850151600019600388901b60f8161c191681555b5050505050600190811b01905550565b61241e80620003e96000396000f3fe608060405234801561001057600080fd5b50600436106101735760003560e01c80634f6ccce7116100de578063a22cb46511610097578063d204c45e11610071578063d204c45e14610350578063d539139314610363578063d547741f1461038a578063e985e9c51461039d57600080fd5b8063a22cb46514610317578063b88d4fde1461032a578063c87b56dd1461033d57600080fd5b80634f6ccce7146102bb5780636352211e146102ce57806370a08231146102e157806391d14854146102f457806395d89b4114610307578063a217fddf1461030f57600080fd5b8063248a9ca311610130578063248a9ca31461021a5780632a55205a1461023d5780632f2ff15d1461026f5780632f745c591461028257806336568abe1461029557806342842e0e146102a857600080fd5b806301ffc9a71461017857806306fdde03146101a0578063081812fc146101b5578063095ea7b3146101e057806318160ddd146101f557806323b872dd14610207575b600080fd5b61018b610186366004611cb2565b6103d9565b60405190151581526020015b60405180910390f35b6101a86103ea565b6040516101979190611d1f565b6101c86101c3366004611d32565b61047c565b6040516001600160a01b039091168152602001610197565b6101f36101ee366004611d67565b6104a3565b005b6009545b604051908152602001610197565b6101f3610215366004611d91565b6105bd565b6101f9610228366004611d32565b6000908152600b602052604090206001015490565b61025061024b366004611dcd565b6105ee565b604080516001600160a01b039093168352602083019190915201610197565b6101f361027d366004611def565b61069a565b6101f9610290366004611d67565b6106bf565b6101f36102a3366004611def565b610755565b6101f36102b6366004611d91565b6107d3565b6101f96102c9366004611d32565b6107ee565b6101c86102dc366004611d32565b610881565b6101f96102ef366004611e1b565b6108e1565b61018b610302366004611def565b610967565b6101a8610992565b6101f9600081565b6101f3610325366004611e36565b6109a1565b6101f3610338366004611efe565b6109ac565b6101a861034b366004611d32565b6109e4565b6101f961035e366004611f7a565b6109ef565b6101f97f9f2df0fed2c77648de5860a4cc508cd0818c85b8b8a1ab4ceeef8d981c8956a681565b6101f3610398366004611def565b610a5e565b61018b6103ab366004611fdc565b6001600160a01b03918216600090815260056020908152604080832093909416825291909152205460ff1690565b60006103e482610a83565b92915050565b6060600080546103f990612006565b80601f016020809104026020016040519081016040528092919081815260200182805461042590612006565b80156104725780601f1061044757610100808354040283529160200191610472565b820191906000526020600020905b81548152906001019060200180831161045557829003601f168201915b5050505050905090565b600061048782610aa8565b506000908152600460205260409020546001600160a01b031690565b60006104ae82610881565b9050806001600160a01b0316836001600160a01b0316036105205760405162461bcd60e51b815260206004820152602160248201527f4552433732313a20617070726f76616c20746f2063757272656e74206f776e656044820152603960f91b60648201526084015b60405180910390fd5b336001600160a01b038216148061053c575061053c81336103ab565b6105ae5760405162461bcd60e51b815260206004820152603d60248201527f4552433732313a20617070726f76652063616c6c6572206973206e6f7420746f60448201527f6b656e206f776e6572206f7220617070726f76656420666f7220616c6c0000006064820152608401610517565b6105b88383610b0a565b505050565b6105c73382610b78565b6105e35760405162461bcd60e51b815260040161051790612040565b6105b8838383610bf6565b6000828152600d602090815260408083208151808301909252546001600160a01b038116808352600160a01b9091046001600160601b0316928201929092528291610663575060408051808201909152600c546001600160a01b0381168252600160a01b90046001600160601b031660208201525b602081015160009061271090610682906001600160601b0316876120a3565b61068c91906120ba565b915196919550909350505050565b6000828152600b60205260409020600101546106b581610d67565b6105b88383610d71565b60006106ca836108e1565b821061072c5760405162461bcd60e51b815260206004820152602b60248201527f455243373231456e756d657261626c653a206f776e657220696e646578206f7560448201526a74206f6620626f756e647360a81b6064820152608401610517565b506001600160a01b03919091166000908152600760209081526040808320938352929052205490565b6001600160a01b03811633146107c55760405162461bcd60e51b815260206004820152602f60248201527f416363657373436f6e74726f6c3a2063616e206f6e6c792072656e6f756e636560448201526e103937b632b9903337b91039b2b63360891b6064820152608401610517565b6107cf8282610df7565b5050565b6105b8838383604051806020016040528060008152506109ac565b60006107f960095490565b821061085c5760405162461bcd60e51b815260206004820152602c60248201527f455243373231456e756d657261626c653a20676c6f62616c20696e646578206f60448201526b7574206f6620626f756e647360a01b6064820152608401610517565b6009828154811061086f5761086f6120dc565b90600052602060002001549050919050565b6000818152600260205260408120546001600160a01b0316806103e45760405162461bcd60e51b8152602060048201526018602482015277115490cdcc8c4e881a5b9d985b1a59081d1bdad95b88125160421b6044820152606401610517565b60006001600160a01b03821661094b5760405162461bcd60e51b815260206004820152602960248201527f4552433732313a2061646472657373207a65726f206973206e6f7420612076616044820152683634b21037bbb732b960b91b6064820152608401610517565b506001600160a01b031660009081526003602052604090205490565b6000918252600b602090815260408084206001600160a01b0393909316845291905290205460ff1690565b6060600180546103f990612006565b6107cf338383610e5e565b6109b63383610b78565b6109d25760405162461bcd60e51b815260040161051790612040565b6109de84848484610f2c565b50505050565b60606103e482610f5f565b60007f9f2df0fed2c77648de5860a4cc508cd0818c85b8b8a1ab4ceeef8d981c8956a6610a1b81610d67565b600e8054906001906000610a2f83856120f2565b90915550610a3f90508582611067565b610a498185611081565b610a5681866101f461114c565b949350505050565b6000828152600b6020526040902060010154610a7981610d67565b6105b88383610df7565b60006001600160e01b0319821663152a902d60e11b14806103e457506103e48261125a565b6000818152600260205260409020546001600160a01b0316610b075760405162461bcd60e51b8152602060048201526018602482015277115490cdcc8c4e881a5b9d985b1a59081d1bdad95b88125160421b6044820152606401610517565b50565b600081815260046020526040902080546001600160a01b0319166001600160a01b0384169081179091558190610b3f82610881565b6001600160a01b03167f8c5be1e5ebec7d5bd14f71427d1e84f3dd0314c0f7b2291e5b200ac8c7c3b92560405160405180910390a45050565b600080610b8483610881565b9050806001600160a01b0316846001600160a01b03161480610bcb57506001600160a01b0380821660009081526005602090815260408083209388168352929052205460ff165b80610a565750836001600160a01b0316610be48461047c565b6001600160a01b031614949350505050565b826001600160a01b0316610c0982610881565b6001600160a01b031614610c2f5760405162461bcd60e51b815260040161051790612105565b6001600160a01b038216610c915760405162461bcd60e51b8152602060048201526024808201527f4552433732313a207472616e7366657220746f20746865207a65726f206164646044820152637265737360e01b6064820152608401610517565b610c9e838383600161127f565b826001600160a01b0316610cb182610881565b6001600160a01b031614610cd75760405162461bcd60e51b815260040161051790612105565b600081815260046020908152604080832080546001600160a01b03199081169091556001600160a01b0387811680865260038552838620805460001901905590871680865283862080546001019055868652600290945282852080549092168417909155905184937fddf252ad1be2c89b69c2b068fc378daa952ba7f163c4a11628f55a4df523b3ef91a4505050565b610b07813361128b565b610d7b8282610967565b6107cf576000828152600b602090815260408083206001600160a01b03851684529091529020805460ff19166001179055610db33390565b6001600160a01b0316816001600160a01b0316837f2f8788117e7eff1d82e926ec794901d17c78024a50270940304540a733656f0d60405160405180910390a45050565b610e018282610967565b156107cf576000828152600b602090815260408083206001600160a01b0385168085529252808320805460ff1916905551339285917ff6391f5c32d9c69d2a47ea670b442974b53935d1edc7fd64eb21e047a839171b9190a45050565b816001600160a01b0316836001600160a01b031603610ebf5760405162461bcd60e51b815260206004820152601960248201527f4552433732313a20617070726f766520746f2063616c6c6572000000000000006044820152606401610517565b6001600160a01b03838116600081815260056020908152604080832094871680845294825291829020805460ff191686151590811790915591519182527f17307eab39ab6107e8899845ad3d59bd9653f200f220920489ca2b5937696c31910160405180910390a3505050565b610f37848484610bf6565b610f43848484846112e4565b6109de5760405162461bcd60e51b81526004016105179061214a565b6060610f6a82610aa8565b60008281526006602052604081208054610f8390612006565b80601f0160208091040260200160405190810160405280929190818152602001828054610faf90612006565b8015610ffc5780601f10610fd157610100808354040283529160200191610ffc565b820191906000526020600020905b815481529060010190602001808311610fdf57829003601f168201915b50505050509050600061101a60408051602081019091526000815290565b9050805160000361102c575092915050565b81511561105e57808260405160200161104692919061219c565b60405160208183030381529060405292505050919050565b610a56846113e5565b6107cf828260405180602001604052806000815250611459565b6000828152600260205260409020546001600160a01b03166110fc5760405162461bcd60e51b815260206004820152602e60248201527f45524337323155524953746f726167653a2055524920736574206f66206e6f6e60448201526d32bc34b9ba32b73a103a37b5b2b760911b6064820152608401610517565b60008281526006602052604090206111148282612219565b506040518281527ff8e1a15aba9398e019f0b49df1a4fde98ee17ae345cb5f6b5e2c27f5033e8ce79060200160405180910390a15050565b6127106001600160601b03821611156111ba5760405162461bcd60e51b815260206004820152602a60248201527f455243323938313a20726f79616c7479206665652077696c6c206578636565646044820152692073616c65507269636560b01b6064820152608401610517565b6001600160a01b0382166112105760405162461bcd60e51b815260206004820152601b60248201527f455243323938313a20496e76616c696420706172616d657465727300000000006044820152606401610517565b6040805180820182526001600160a01b0393841681526001600160601b0392831660208083019182526000968752600d90529190942093519051909116600160a01b029116179055565b60006001600160e01b03198216637965db0b60e01b14806103e457506103e48261148c565b6109de848484846114b1565b6112958282610967565b6107cf576112a2816115e5565b6112ad8360206115f7565b6040516020016112be9291906122d9565b60408051601f198184030181529082905262461bcd60e51b825261051791600401611d1f565b60006001600160a01b0384163b156113da57604051630a85bd0160e11b81526001600160a01b0385169063150b7a029061132890339089908890889060040161234e565b6020604051808303816000875af1925050508015611363575060408051601f3d908101601f191682019092526113609181019061238b565b60015b6113c0573d808015611391576040519150601f19603f3d011682016040523d82523d6000602084013e611396565b606091505b5080516000036113b85760405162461bcd60e51b81526004016105179061214a565b805181602001fd5b6001600160e01b031916630a85bd0160e11b149050610a56565b506001949350505050565b60606113f082610aa8565b600061140760408051602081019091526000815290565b905060008151116114275760405180602001604052806000815250611452565b8061143184611793565b60405160200161144292919061219c565b6040516020818303038152906040525b9392505050565b6114638383611826565b61147060008484846112e4565b6105b85760405162461bcd60e51b81526004016105179061214a565b60006001600160e01b0319821663780e9d6360e01b14806103e457506103e4826119bf565b60018111156115205760405162461bcd60e51b815260206004820152603560248201527f455243373231456e756d657261626c653a20636f6e7365637574697665207472604482015274185b9cd9995c9cc81b9bdd081cdd5c1c1bdc9d1959605a1b6064820152608401610517565b816001600160a01b03851661157c5761157781600980546000838152600a60205260408120829055600182018355919091527f6e1540171b6c0c960b71a7020d9f60077f6af931a8bbf590da0223dacf75c7af0155565b61159f565b836001600160a01b0316856001600160a01b03161461159f5761159f85826119e4565b6001600160a01b0384166115bb576115b681611a81565b6115de565b846001600160a01b0316846001600160a01b0316146115de576115de8482611b30565b5050505050565b60606103e46001600160a01b03831660145b606060006116068360026120a3565b6116119060026120f2565b67ffffffffffffffff81111561162957611629611e72565b6040519080825280601f01601f191660200182016040528015611653576020820181803683370190505b509050600360fc1b8160008151811061166e5761166e6120dc565b60200101906001600160f81b031916908160001a905350600f60fb1b8160018151811061169d5761169d6120dc565b60200101906001600160f81b031916908160001a90535060006116c18460026120a3565b6116cc9060016120f2565b90505b6001811115611744576f181899199a1a9b1b9c1cb0b131b232b360811b85600f1660108110611700576117006120dc565b1a60f81b828281518110611716576117166120dc565b60200101906001600160f81b031916908160001a90535060049490941c9361173d816123a8565b90506116cf565b5083156114525760405162461bcd60e51b815260206004820181905260248201527f537472696e67733a20686578206c656e67746820696e73756666696369656e746044820152606401610517565b606060006117a083611b74565b600101905060008167ffffffffffffffff8111156117c0576117c0611e72565b6040519080825280601f01601f1916602001820160405280156117ea576020820181803683370190505b5090508181016020015b600019016f181899199a1a9b1b9c1cb0b131b232b360811b600a86061a8153600a85049450846117f457509392505050565b6001600160a01b03821661187c5760405162461bcd60e51b815260206004820181905260248201527f4552433732313a206d696e7420746f20746865207a65726f20616464726573736044820152606401610517565b6000818152600260205260409020546001600160a01b0316156118e15760405162461bcd60e51b815260206004820152601c60248201527f4552433732313a20746f6b656e20616c7265616479206d696e746564000000006044820152606401610517565b6118ef60008383600161127f565b6000818152600260205260409020546001600160a01b0316156119545760405162461bcd60e51b815260206004820152601c60248201527f4552433732313a20746f6b656e20616c7265616479206d696e746564000000006044820152606401610517565b6001600160a01b038216600081815260036020908152604080832080546001019055848352600290915280822080546001600160a01b0319168417905551839291907fddf252ad1be2c89b69c2b068fc378daa952ba7f163c4a11628f55a4df523b3ef908290a45050565b60006001600160e01b03198216632483248360e11b14806103e457506103e482611c4c565b600060016119f1846108e1565b6119fb91906123bf565b600083815260086020526040902054909150808214611a4e576001600160a01b03841660009081526007602090815260408083208584528252808320548484528184208190558352600890915290208190555b5060009182526008602090815260408084208490556001600160a01b039094168352600781528383209183525290812055565b600954600090611a93906001906123bf565b6000838152600a602052604081205460098054939450909284908110611abb57611abb6120dc565b906000526020600020015490508060098381548110611adc57611adc6120dc565b6000918252602080832090910192909255828152600a90915260408082208490558582528120556009805480611b1457611b146123d2565b6001900381819060005260206000200160009055905550505050565b6000611b3b836108e1565b6001600160a01b039093166000908152600760209081526040808320868452825280832085905593825260089052919091209190915550565b60008072184f03e93ff9f4daa797ed6e38ed64bf6a1f0160401b8310611bb35772184f03e93ff9f4daa797ed6e38ed64bf6a1f0160401b830492506040015b6d04ee2d6d415b85acef81000000008310611bdf576d04ee2d6d415b85acef8100000000830492506020015b662386f26fc100008310611bfd57662386f26fc10000830492506010015b6305f5e1008310611c15576305f5e100830492506008015b6127108310611c2957612710830492506004015b60648310611c3b576064830492506002015b600a83106103e45760010192915050565b60006001600160e01b031982166380ac58cd60e01b1480611c7d57506001600160e01b03198216635b5e139f60e01b145b806103e457506301ffc9a760e01b6001600160e01b03198316146103e4565b6001600160e01b031981168114610b0757600080fd5b600060208284031215611cc457600080fd5b813561145281611c9c565b60005b83811015611cea578181015183820152602001611cd2565b50506000910152565b60008151808452611d0b816020860160208601611ccf565b601f01601f19169290920160200192915050565b6020815260006114526020830184611cf3565b600060208284031215611d4457600080fd5b5035919050565b80356001600160a01b0381168114611d6257600080fd5b919050565b60008060408385031215611d7a57600080fd5b611d8383611d4b565b946020939093013593505050565b600080600060608486031215611da657600080fd5b611daf84611d4b565b9250611dbd60208501611d4b565b9150604084013590509250925092565b60008060408385031215611de057600080fd5b50508035926020909101359150565b60008060408385031215611e0257600080fd5b82359150611e1260208401611d4b565b90509250929050565b600060208284031215611e2d57600080fd5b61145282611d4b565b60008060408385031215611e4957600080fd5b611e5283611d4b565b915060208301358015158114611e6757600080fd5b809150509250929050565b634e487b7160e01b600052604160045260246000fd5b600067ffffffffffffffff80841115611ea357611ea3611e72565b604051601f8501601f19908116603f01168101908282118183101715611ecb57611ecb611e72565b81604052809350858152868686011115611ee457600080fd5b858560208301376000602087830101525050509392505050565b60008060008060808587031215611f1457600080fd5b611f1d85611d4b565b9350611f2b60208601611d4b565b925060408501359150606085013567ffffffffffffffff811115611f4e57600080fd5b8501601f81018713611f5f57600080fd5b611f6e87823560208401611e88565b91505092959194509250565b60008060408385031215611f8d57600080fd5b611f9683611d4b565b9150602083013567ffffffffffffffff811115611fb257600080fd5b8301601f81018513611fc357600080fd5b611fd285823560208401611e88565b9150509250929050565b60008060408385031215611fef57600080fd5b611ff883611d4b565b9150611e1260208401611d4b565b600181811c9082168061201a57607f821691505b60208210810361203a57634e487b7160e01b600052602260045260246000fd5b50919050565b6020808252602d908201527f4552433732313a2063616c6c6572206973206e6f7420746f6b656e206f776e6560408201526c1c881bdc88185c1c1c9bdd9959609a1b606082015260800190565b634e487b7160e01b600052601160045260246000fd5b80820281158282048414176103e4576103e461208d565b6000826120d757634e487b7160e01b600052601260045260246000fd5b500490565b634e487b7160e01b600052603260045260246000fd5b808201808211156103e4576103e461208d565b60208082526025908201527f4552433732313a207472616e736665722066726f6d20696e636f72726563742060408201526437bbb732b960d91b606082015260800190565b60208082526032908201527f4552433732313a207472616e7366657220746f206e6f6e20455243373231526560408201527131b2b4bb32b91034b6b83632b6b2b73a32b960711b606082015260800190565b600083516121ae818460208801611ccf565b8351908301906121c2818360208801611ccf565b01949350505050565b601f8211156105b857600081815260208120601f850160051c810160208610156121f25750805b601f850160051c820191505b81811015612211578281556001016121fe565b505050505050565b815167ffffffffffffffff81111561223357612233611e72565b612247816122418454612006565b846121cb565b602080601f83116001811461227c57600084156122645750858301515b600019600386901b1c1916600185901b178555612211565b600085815260208120601f198616915b828110156122ab5788860151825594840194600190910190840161228c565b50858210156122c95787850151600019600388901b60f8161c191681555b5050505050600190811b01905550565b7f416363657373436f6e74726f6c3a206163636f756e7420000000000000000000815260008351612311816017850160208801611ccf565b7001034b99036b4b9b9b4b733903937b6329607d1b6017918401918201528351612342816028840160208801611ccf565b01602801949350505050565b6001600160a01b038581168252841660208201526040810183905260806060820181905260009061238190830184611cf3565b9695505050505050565b60006020828403121561239d57600080fd5b815161145281611c9c565b6000816123b7576123b761208d565b506000190190565b818103818111156103e4576103e461208d565b634e487b7160e01b600052603160045260246000fdfea264697066735822122075bcf95cd4ee31ae8671147daa0152fe1a5879a0abc975ddc93508fb9b6193d564736f6c63430008130033",
  "linkReferences": {},
  "deployedLinkReferences": {}
}